:1000000000000220010100001B0300003B03000070
:100010001B0300001B0300001B0300000000000086
:100020000000000000000000000000001B030000B2
:100030001B030000000000001B0300001B03000066
:100040001B0300001B0300001B0300001B03000038
:100050001B0300001B0300001B0300001B03000028
:100060001B0300001B0300001B0300001B03000018
:100070001B0300001B0300001B0300001B03000008
:100080001B0300001B0300001B0300001B030000F8
:100090001B0300001B0300001B0300001B030000E8
:1000A0001B0300001B0300001B0300001B030000D8
:1000B0001B0300001B030000000000000000000004
:1000C0001B0300001B0300001B0300001B030000B8
:1000D0001B0300001B0300001B0300001B030000A8
:1000E0001B030000000000000000000000000000F2
:1000F000000000001B030000000000001B030000C4
:1001000000F00EF90E480F490022814201D004C0D0
:10011000FBE70D480D490E4A814202D008CA08C0CB
:10012000FAE70C484FF47001026842EA01020260EB
:10013000BFF34F8FBFF36F8F00F0DFF800DE0000DA
:10014000000000200400002000000020000000202B
:100150004003000088ED00E080B56F4600F0EAF84B
:10016000044600F0E3F840F20005C2F200056E78A4
:10017000002E04BF01206870E00708BF00F0D8F827
:10018000002E40F0B88000F0D5F8044600F0CEF81C
:100190002E78002E04BF01202870E00708BF00F071
:1001A000C7F8002E40F0A78040F20C5C4FF0805E54
:1001B000C5F2000C03204FF400614CF804ECCCF8BD
:1001C00064024FF080424CF8041C4FF00041CCF820
:1001D00020024FF480134CF8041C2021CCF870024C
:1001E0004AF22014CCF8FC1240F61421C5F20001AA
:1001F0004FF6C0650860C0F207044CF8042C4FF4B9
:100200000012CCF86C02CFF6FF75CCF800204FF44A
:100210008002CCF84802CCF800204FF40042CCF821
:100220004C02CCF800204FF08072CCF83002CCF8B1
:1002300000204FF40022CCF85402CCF80020002219
:10024000CCF84002CCF82C22CCF85022CCF8082272
:10025000CCF8003040F20353CCF844324023CCF8C1
:100260001422CCF83422CCF85C22CCF8F4244CF8DC
:10027000043C48F24013CCF80C02C4F20003CA60FC
:1002800040F20111C3F8C0100421C3F8D0130121BA
:10029000C3F8C803CCF800E0CCF864024FF6CC6099
:1002A000CFF6FF7000E01A604CF804EC1A60C3F857
:1002B0000044195059511E6846B91E68002E04BFEB
:1002C0001E68002E02D11E68002EF4D01A60CCF8F1
:1002D00000E01A60C3F80044195059511E68002EFE
:1002E000E1D11E68002E04BF1E68002EDBD11E68FF
:1002F000002EF3D0D7E700F008F880B56F46FFF77F
:100300002BFF80B56F4600F00EF880B56F4600F009
:1003100000F880B56F46FFF7F4FF80B56F46FEE743
:1003200080B56F4680BD80B56F46FEE772B67047F8
:1003300062B67047EFF31080704780B56F46FEE7F6
:0400000300000101F7
:00000001FF
